:020000040800F2
:1000000000000220994D0008992600089B26000850
:100010009D2600089F260008A12600080000000079
:10002000000000000000000000000000214B00085C
:10003000A326000800000000C14B0008254C000862
:10004000E94D0008E94D0008E94D0008E94D0008B8
:10005000E94D0008E94D0008A5260008E94D000813
:10006000E94D0008E94D0008E94D0008E94D000898
:10007000E94D0008E94D0008E94D0008E94D000888
:10008000E94D0008E94D0008E94D0008E94D000878
:10009000E94D0008E94D0008E94D0008E94D000868
:1000A000E94D0008E94D0008E94D0008E94D000858
:1000B000E94D0008E94D0008E94D0008E94D000848
:1000C000E94D0008E94D0008E94D0008E94D000838
:1000D000E94D0008E94D0008B1260008C1260008D6
:1000E000E94D0008E94D0008E94D0008E94D000818
:1000F000E94D0008D1260008E94D0008E94D000847
:10010000E94D0008E94D0008E94D0008E94D0008F7
:10011000E94D0008E94D0008E94D0008E94D0008E7
:10012000E94D0008E94D0008E94D0008E94D0008D7
:10013000E94D0008E94D0008E94D0008E94D0008C7
:10014000E94D0008E94D0008E94D0008E94D0008B7
:10015000E94D0008E94D0008E94D0008E94D0008A7
:10016000E94D0008E94D0008E94D0008E94D000897
:10017000E94D0008E94D0008E94D000800000000C5
:08018000E94D0008E94D0008FB
:1001900010B5054C237833B9044B13B10448AFF3C1
:1001A00000800123237010BD4019002000000000D2
:1001B0009456000808B5034B1BB103490348AFF33D
:1001C000008008BD0000000044190020945600087B
:1001D00001F0FF01102A2BDB10F0070F08D010F8F8
:1001E000013B013A8B422DD010F0070F42B3F6D1FC
:1001F000F0B441EA012141EA014122F007047FF015
:1002000000070023F0E80256083C85EA010586EA6B
:10021000010685FA47F5A3FA87F586FA47F6A5FAA7
:1002200087F68EB9EED1F0BC01F0FF0102F00702B3
:1002300032B110F8013B013A83EA010313B1F8D15E
:100240000020704701387047002D06BF354603383F
:10025000073815F0010F07D1013015F4807F02BF78
:10026000013015F4C03F0130F0BC0138704700BFC9
:1002700053B94AB9002908BF00281CBF4FF0FF310D
:100280004FF0FF3000F074B9ADF1080C6DE904CE09
:1002900000F006F8DDF804E0DDE9022304B0704761
:1002A0002DE9F047089E04468846002B40F08580E3
:1002B0008A42154648D9B2FA82F24AB1C2F1200701
:1002C00001FA02F320FA07F7954047EA0308944041
:1002D0004FEA154E230CB8FBFEF71FFA85FC0EFB08
:1002E000178843EA084307FB0CF1994209D9EB1838
:1002F00007F1FF3080F0E380994240F2E080023F56
:100300002B445B1AA4B2B3FBFEF00EFB103344EA9D
:10031000034400FB0CFCA44509D92C1900F1FF3360
:1003200080F0CB80A44540F2C88002382C4440EADB
:100330000740A4EB0C0400271EB1D4400023C6E9FB
:1003400000433946BDE8F087002A53D0B2FA82F262
:10035000002A40F0B680491B4FEA154E1FFA85F877
:100360000127B1FBFEFC230C0EFB1C1143EA0143E9
:1003700008FB0CF1994207D9EB180CF1FF3002D2BF
:10038000994200F2EC808446591AA3B2B1FBFEF008
:100390000EFB101443EA044408FB00F8A04507D9FB
:1003A0002C1900F1FF3302D2A04500F2DC80184680
:1003B000A4EB080440EA0C40BEE78B4208D9002EAB
:1003C00078D00027C6E9000138463946BDE8F087F5
:1003D000B3FA83F77FB98B4202D3824200F2BD8029
:1003E000841A61EB030301209846002EA9D0C6E9C8
:1003F0000048A6E7FFDEC7F12005BB4022FA05FC56
:100400004CEA030C01FA07F420FA05F821FA05F387
:100410004FEA1C4E48EA0404B3FBFEF9210C0EFB24
:1004200019331FFA8CF841EA034309FB08FA9A458D
:1004300002FA07F200FA07F10BD91CEB030309F1EA
:10044000FF3080F088809A4540F28580A9F102094A
:100450006344A3EB0A03A4B2B3FBFEF00EFB10331C
:1004600044EA034400FB08F8A04508D91CEB040447
:1004700000F1FF336BD2A04569D90238644440EAE9
:100480000940A4EB0804A0FB02894C45C6464B4634
:1004900054D351D0002E69D0B1EB0E0264EB0304AB
:1004A00004FA05F522FA07F3FC401D43C6E900549F
:1004B000002746E73746304643E7184637E7074602
:1004C0001FE7C2F1200320FA03F7954001FA02F07A
:1004D00021FA03F34FEA154E3843010CB3FBFEF744
:1004E0001FFA85F80EFB173341EA034107FB08F3B7
:1004F0008B4204FA02F407D9691807F1FF3C28D2AD
:100500008B4226D9023F2944CB1A81B2B3FBFEF0BD
:100510000EFB103341EA034100FB08F38B4207D97D
:10052000691800F1FF3C10D28B420ED902382944E1
:10053000C91A40EA074714E74145ABD2B8EB020EAF
:1005400069EB0C0201381346A4E76046F0E7184651
:1005500095E76746D8E781467BE7384645E7ACF143
:10056000020C2B4410E702382C4421E73746E8E61A
:10057000704700BF70B58AB00024059406940794B4
:100580000894099400942F4B1A6B42F004021A63EA
:100590001A6B02F004020092009A01941A6B42F066
:1005A00080021A631A6B02F080020192019A02948F
:1005B0001A6B42F001021A631A6B02F001020292F6
:1005C000029A03941A6B42F002021A631A6B02F049
:1005D00002020392039A04941A6B42F008021A630F
:1005E0001B6B03F008030493049B174D22464FF442
:1005F0007041284603F09AFC01260596134B06939A
:10060000079405A9124803F0ADFB04230593069453
:10061000079405A90F4803F0A5FB4FF47043059319
:1006200006960794089405A9284603F09BFB2246EA
:100630002146062003F0B6FC062003F0E7FC0AB0D2
:1006400070BD00BF00380240000C024000001110D5
:10065000000002400004024070B5144C144D0FCD50
:1006600020606160A260E36003CD20616161114E92
:100670004FF0FF3317222146304602F0DDFC4FF4E5
:100680007A7003F0FDFC0C4D0FCD20606160A2601C
:10069000E36028682061AB88A3824FF0FF33152206
:1006A0002146304602F0C8FC70BD00BF245B00202C
:1006B000145D0008C85B00202C5D000838B5224C92
:1006C000224B07CB20606160A260214D4FF0FF33C9
:1006D0000B222146284602F0AFFC4FF47A7003F05B
:1006E000CFFC1C4A1C49204604F0BAFB4FF0FF33F4
:1006F00017222146284602F09FFC4FF4FA6003F0CF
:10070000BFFC164A1649204604F0AAFB154B1A787E
:100710004FF0FF3302322146284602F08DFC4FF4A1
:100720007A7003F0ADFC1A220F49204604F098FBC2
:100730004FF0FF3301222146284602F07DFC4FF4A2
:100740007A7003F09DFC38BD245B0020505D0008EA
:10075000C85B0020B85B00205C5D00084C5C00209A
:100760005C5A0008825900206C5D000810B5074CE7
:10077000074A0849204604F073FB4FF0FF3311226B
:100780002146054802F058FC10BD00BF245B002044
:10079000B85B0020445D0008C85B002008B506492E
:1007A000064B186808609B888B804FF0FF3305224A
:1007B000034802F041FC08BD245B00200C5D0008EA
:1007C000C85B002008B503F083F901F0B7FD03F022
:1007D00097F903F07DF90F4B18880F4B18800F4BDA
:1007E00018800F4901F088FD10B903F089F908BDA0
:1007F0004FF0FF3316220B490B4802F01DFC03F0AB
:1008000067F9074B1988054B188801F02BFF03F097
:1008100077F9EAE7CC180020845900200A5C002010
:100820005C19002028580008785B0020F0B58BB0D8
:10083000494B1A886AB1494C4949204604F010FBDB
:100840004FF0FF3313222146464802F0F5FB002605
:1008500072E04FF0FF330C224349424802F0ECFBB8
:100860000BB0F0BD03F034F9404D0DF10E012888B6
:1008700001F042FD03F044F90AAB2344BDF80E2019
:1008800003F8182C01342B8801332B800A2CE9DD66
:10089000002407940894ADF82440354B5B8807EB9F
:1008A00087077A001344314A138025460AE0013451
:1008B000A4B20AAB2B4403F80C1C01352B4A138855
:1008C00001331380092D17DC03F002F90DF10E013D
:1008D000264B188801F010FD70B903F011F9BDF82E
:1008E0000E10A1F141039BB2192BE0D9A1F16103D4
:1008F0009BB2192BE1D8DAE7184D3C22002128469B
:1009000004F0A6FA013604AB009307AB324619494E
:10091000284604F0A5FA04F11002124C42F21073BA
:1009200092B22946204602F087FB42F2107302225F
:100930001149204602F080FB074B1B88B3428FDD34
:100940000B4B9B88B7B207EB870207EB42021344BD
:10095000064A1380002499E75C190020245B0020DC
:1009600050580008785B0020405800088459002047
:10097000CC180020685800083C580008F0B585B035
:100980004FF0FF331F225249524802F055FB002618
:100990004FF0FF3727E003F09BF84F4D0DF10E01AC
:1009A000288801F0A9FC03F0ABF804AB2344BDF8A0
:1009B0000E2003F8102C01342B8801332B800A2CD5
:1009C000E9DD002300E001330A2B0BDC04AA1A4402
:1009D00012F8101C414AD25C914203D10A2BF2D189
:1009E0003746F0E701363E4B1B88B3420ADD3D4BEC
:1009F0009B8806EB860206EB42021344364A1380BC
:100A00000024DCE7B7F1FF3F4DD0374B00241C60DA
:100A10005C601C81354B1C70324B5B8807EB870197
:100A20004A0013442C4A13800AE030490B78013302
:100A30000B702F4B1A550134274A1388013313804A
:100A4000092C17DC03F044F80DF10E01224B188835
:100A500001F052FC70B903F053F8BDF80E20A2F17A
:100A600041039BB2192BE0D9A2F161039BB2192B70
:100A7000E1D8DAE71F4C3C220021204604F0E8F9D7
:100A80001B4A1D49204604F0EBF9184B1A784FF029
:100A9000FF332B3221460F4802F0CEFA03F030F834
:100AA000384605B0F0BD134D144C0FCC286069607A
:100AB000AA60EB6007CC28616961AA612388AB83D7
:100AC00042F210731D222946024802F0B5FAE5E70A
:100AD0004C570008785B002084590020605B0020A0
:100AE0005C190020CC18002088590020485C0020A8
:100AF0006C5B0020245B00206C5700089C570008AA
:100B0000F0B585B04FF0FF331D226149614802F016
:100B100093FA00254FF0FF365FE00134A4B204AB36
:100B20003B4403F80C2C01375B4A138801331380D4
:100B3000092F17DC02F0CCFF0DF10E01564B18887F
:100B400001F0DAFB70B902F0DBFFBDF80E20A2F174
:100B500041039BB2192BE0D9A2F161039BB2192B7F
:100B6000E1D8DAE700230BE004A9194411F80C0CD2
:100B70004A49C95C88422FD1511E994227D001337E
:100B8000474A12789A4227DD04A9194411F80C0C3F
:100B9000A0F14101C9B2192908D84049C95C6029AE
:100BA00004D97A2902D820393C4FF954A0F16101C7
:100BB000C9B21929D8D83949C95C4029D4D95A2988
:100BC000D2D8203804A9194401F80C0CCCE792B211
:100BD000A242D4D12E46D2E70135324B1B88AB421C
:100BE0000EDD002401940294ADF80C402E4B5B887E
:100BF00005EB85014A001344274A1380274697E7EF
:100C0000B6F1FF3F30D0284B9B8806EB860206EBFF
:100C100042021344204A138000240A2C14DC02F000
:100C200057FF0DF10E011C4B188801F065FB58B9F8
:100C300002F066FF1D4BBDF80E201A550134164A0E
:100C4000138801331380E8E7194C184A19492046E4
:100C500004F006F94FF0FF33362221460D4802F02A
:100C6000EBF9304605B0F0BD114D134C0FCC2860A8
:100C70006960AA60EB6007CC28616961AA6142F2F1
:100C800010731B222946034802F0D6F9E9E700BF9A
:100C9000BC570008785B0020845900208859002048
:100CA000485C00205C190020CC180020B85B0020B4
:100CB000245B0020DC5700080C58000838B54FF0C2
:100CC000FF331A224149424802F0B6F9FFF756FEB7
:100CD000B0F1FF3F14D10446FFF712FFB0F1FF3F20
:100CE0001BD102F0F5FE3B4B9A883B4B1B8803EB74
:100CF000830103EB41031344384A138000241EE0B0
:100D0000374A3849384804F0ABF8384B1B782E3353
:100D1000374A13704FF0FF3455E0364A36493748AA
:100D200004F09EF8324B39221A704CE02B4B188895
:100D300001F098FC0134294A1388013313800A2CEE
:100D400007DC2F4B195DA1F13003DBB2092BF1D881
:100D5000ECE702F0D5FE02F0BBFE1E4B5A881E4B9C
:100D60001B8803EB8303590053181C4A138000248B
:100D700007E01A4D288801F075FC01342B880133F7
:100D80002B80092C0BDC1F4B195DA1F14103DBB259
:100D9000192BEED9A1F16103DBB2192BE9D902F0CD
:100DA000AFFE0D4C23880133238002F091FE094BE6
:100DB00018880A4B1880218801F054FC02F0A0FE2C
:100DC000FFF734FD0024204638BD00BFC856000898
:100DD000785B0020CC1800205C1900200A5C002001
:100DE0006C5B0020E45600080C5C0020485C00208E
:100DF000085C0020B85B002018570008245B002026
:100E0000605B00208859002010B504464FF47A73C7
:100E100005222649264802F00FF94FF47A7003F0B4
:100E20002FF93CBB4FF47A7003F02AF9204C4FF4B1
:100E30007A7321221F49204602F0FEF842F2107018
:100E400003F01EF94FF47A730D221B49204602F07D
:100E5000F3F84FF47A7003F013F94FF47A73132216
:100E60001649204602F0E8F801221549204602F012
:100E700053F910BD0E4C4FF47A730D2211492046E0
:100E800002F0DAF84FF47A7003F0FAF84FF47A735C
:100E90000A220D49204602F0CFF841F2883003F0D3
:100EA000EFF842F2107003F0EBF8BBE7305B00089C
:100EB00010590020545B0008785B0008885B00082C
:100EC000C45B0020385B0008485B00082DE9F04F48
:100ED00083B000252F460095A946A84601952B46CC
:100EE00001E00133DBB2B14A12789A421FD9D91F0F
:100EF000AF48415C6E29F4D1991F415C7529F0D14E
:100F0000591F415C6D29ECD1191F415C6229E8D160
:100F1000D91E415C6529E4D19C1E015D7229E0D196
:100F2000511EC9B200911D464FF0010A01E04FF079
:100F3000000A002301E00133DBB29A421CD9591F99
:100F40009B48415C7429F6D1191F415C6529F2D197
:100F5000D91E415C7829EED19C1E015D7429EAD12D
:100F6000511EC9B20191C91AC9B20131914801702B
:100F700098464FF0010B01E04FF0000B002113E009
:100F8000A5F109095FFA89F924E0A8F107095FFAD8
:100F900089F9A9EB0103DBB20133874A13700F46CD
:100FA000012325E00131C9B28A4220D94B1F804874
:100FB000C35C6E2BF6D10B1FC35C612BF2D1CB1E31
:100FC000C35C6D2BEED18C1E035D652BEAD1BAF1AB
:100FD000000FD5D1BBF1000FD7D1BAF1000FD8D196
:100FE000BBF1000FD5D1013A5FFA82F9D1E70023B6
:100FF000002B4AD1BAF1000F40F0B980BBF1000FCD
:1010000040F02D81002003B0BDE8F08FFA18684948
:10101000895C6A4AD1540133DBB2674A12789A423A
:10102000F4D83C464E464B463A466549654803F07F
:1010300017FF4FF47A7320226249634801F0FCFFE6
:10104000A9EB0707002F23DC604D614C05F1200759
:101050002E460FCE20606160A260E36035461034FA
:10106000BE42F5D130682060B288B379A280A37106
:10107000584B26221A704FF47A730C225649524864
:1010800001F0DAFF4FF0FF30BDE70023C5E7013480
:10109000A64227DB464B1B5DA3F14102D2B2192ABF
:1010A000F5D9613BDBB2192BF1D94C4E484D06F115
:1010B000200734460FCC28606960AA60EB602646A2
:1010C0001035BC42F5D123782B70424B20221A7088
:1010D0004FF47A730C2240493B4801F0ADFF4FF0CA
:1010E000FF3090E7374C354A3D49204603F0B8FEC3
:1010F000314F3A78344E4FF47A73083221463046F5
:1011000001F09AFF3A783749204603F0A9FE4FF4E0
:101110007A730F222146304601F08EFF6AE7EA1803
:101120002349895C304AD1540133DBB20A2BF6D90A
:101130002C46DDF800904E46224F4B462A462B495E
:10114000384603F08DFE4FF47A73252239461E4847
:1011500001F072FF731B0A2B0BD1A6426DDB144BFF
:101160001B5D303BDBB2092B46D80134F5E7002389
:10117000DCE71F4D164C05F120072E460FCE2060F0
:101180006160A260E36035461034BE42F5D130683C
:101190002060104B23221A704FF47A730E221549E7
:1011A000094801F049FF4FF0FF302CE75E1900209D
:1011B0005059002082590020485C002088590020A6
:1011C00030590008245B0020785B00205459000847
:1011D0000C5C0020085C00207C5900088C59000839
:1011E000B0590008BC590008605B0020D0590008C5
:1011F000F85900081C5A0008494E4A4C06F12007CD
:1012000035460FCD20606160A260E3602E46103449
:10121000BD42F5D128682060AA88AB79A280A3716D
:10122000414B26221A704FF47A730E223F494048F0
:1012300001F002FF4FF0FF30E5E63E4C3E4A3F49E9
:10124000204603F00DFE009B5A1B92B20B324FF466
:101250007A7392B22146364801F0EEFECEE60023C4
:10126000374A12789A4208D908EB03023549895C5B
:10127000354AD1540133DBB2F2E72E4C019D2B46A7
:1012800042463249204603F0EBFD4FF47A732122A7
:101290002146274801F0D0FEA5EB0808B8F1000F61
:1012A0001DDD244C284A2A49204603F0D9FD244E4E
:1012B00032781F4D4FF47A7308322146284601F0E8
:1012C000BBFE32782349204603F0CAFD4FF47A73FF
:1012D0000F222146284601F0AFFE002093E61E4D66
:1012E000104C05F120072E460FCE20606160A260F1
:1012F000E36035461034BE42F5D130682060B288D4
:10130000B379A280A371084B26221A704FF47A7326
:101310000F221249064801F08FFE4FF0FF3072E6AF
:101320002C5A00080C5C0020085C00201C5A0008A5
:10133000785B0020245B0020605B0020545A00088A
:1013400082590020505900204C5C0020645A00084B
:10135000C05A0008CC5A0008885A0008B05A000841
:1013600070B54FF47A7319221A491B4801F064FED4
:101370001A4E1B4C40F2DB2332781A49204603F008
:101380006FFD194D4FF47A7313222146284601F060
:1013900053FE4FF47A7002F073FE4FF47A7340F20A
:1013A000DB221249284601F047FEC82002F068FE01
:1013B00032780F49204603F053FD4FF47A7311221F
:1013C0002146284601F038FE4FF4967002F058FE90
:1013D00070BD00BF305C0008785B0020D218002090
:1013E000245B00204C5C000810590020800C002079
:1013F000605C000810B50A4C4FF47A731922094951
:10140000204601F019FE4FF47A7312220649204655
:1014100001F012FEFFF7C2F9FFF7A2FF10BD00BFF7
:10142000785B0020B8580008D458000870B54FF415
:101430007A7317221A491B4801F0FEFD1A4E1B4C05
:1014400040F22A4332781A49204603F009FD194D2B
:101450004FF47A7313222146284601F0EDFD4FF434
:101460007A7002F00DFE4FF47A7340F22A4212496C
:10147000284601F0E1FDC82002F002FE32780F4953
:10148000204603F0EDFC4FF47A73112221462846E2
:1014900001F0D2FD4FF4967002F0F2FD70BD00BF76
:1014A000745C0008785B0020D2180020245B0020C8
:1014B0004C5C0008105900205C0F0020605C0008A4
:1014C0002DE9F0438FB000AF4FF47A731B228649A9
:1014D000864801F0B1FD864D40F27343854A12788B
:1014E0008549284603F0BCFC844C4FF47A731322E0
:1014F0002946204601F0A0FD4FF47A7002F0C0FDAD
:101500004FF47A7340F273427D49204601F094FD16
:10151000C82002F0B5FD00267BE002F0D9FA794D33
:1015200007F11E01288800F0E7FE02F0E9FA07F152
:1015300038032344FA8B03F8182C01342B88013329
:101540002B800A2CE9DD0024FC623C63BC866E4BD8
:101550005B8808EB88084FEA48021344694A138005
:1015600025460BE00134A4B207F138032B4403F8FD
:101570000C2C0135634A138801331380092D16DCC6
:1015800002F0A6FA07F11E015E4B188800F0B4FEC7
:1015900068B902F0B5FAFA8BA2F141039BB2192B9C
:1015A000E0D9A2F161039BB2192BE2D8DAE704F18A
:1015B0002605E8462D3424F00704ADEB040D07F1B1
:1015C000200307F12C025149684603F049FCDFF87B
:1015D00020912B46474A12784749484603F040FC81
:1015E000464C4FF47A7313224946204601F024FDFD
:1015F0004FF47A7002F044FD4FF47A73AAB2694650
:10160000204601F019FD4FF4967002F039FDC546F1
:1016100001363F4B1B889E420CDA3B4B9B881FFADE
:1016200086F808EB880208EB42021344354A13801F
:10163000002486E7A3B32F4E2D4C40F24913327895
:101640002D49204603F00CFC2C4D4FF47A731322E5
:101650002146284601F0F0FC4FF47A7002F010FDAC
:101660004FF47A7340F249122A49284601F0E4FC0B
:101670004FF4967002F004FD32782749204603F0BB
:10168000EFFB4FF47A7311222146284601F0D4FC77
:101690004FF4967002F0F4FC3C37BD46BDE8F08391
:1016A0001E49384603F0DCFB114D1D23114A127808
:1016B0001149284603F0D4FB104C4FF47A731322DF
:1016C0002946204601F0B8FC4FF47A7002F0D8FCAD
:1016D0004FF47A731D223946204601F0ADFC4FF4D9
:1016E000967002F0CDFCA6E7B85B0008785B00209E
:1016F000245B0020D21800204C5C00081059002008
:101700002003002084590020CC180020D45B00085E
:101710005C19002094070020605C0008F45B00085E
:1017200070B54FF47A731B221A491B4801F084FCF0
:101730001A4E1B4C4FF4607332781A49204603F05E
:101740008FFB194D4FF47A7313222146284601F07E
:1017500073FC4FF47A7002F093FC4FF47A734FF4F9
:1017600060721249284601F067FCC82002F088FC2C
:1017700032780F49204603F073FB4FF47A7311223D
:101780002146284601F058FC4FF4967002F078FC90
:1017900070BD00BF8C5C0008785B0020D218002070
:1017A000245B00204C5C00081059002088130020A6
:1017B000605C000838B5144C4FF47A731622134954
:1017C000204601F039FC4FF47A7316221049204666
:1017D00001F032FCFFF72AF80E4D00232B8002F0B7
:1017E00077F90D4B18880D4B1880298800F03AFFC7
:1017F00002F086F94FF47A7316220949204601F067
:101800001BFCFFF78DFF38BD785B0020E85800080F
:10181000005900085C190020CC1800200A5C002048
:101820001859000870B54FF47A7312221A491B48F0
:1018300001F002FC1A4E1B4C40F21D3332781A495B
:10184000204603F00DFB194D4FF47A731322214605
:10185000284601F0F1FB4FF47A7002F011FC4FF4CE
:101860007A7340F21D321249284601F0E5FBC82088
:1018700002F006FC32780F49204603F0F1FA4FF4EB
:101880007A7311222146284601F0D6FB4FF4967058
:1018900002F0F6FB70BD00BF9C5B0008785B002087
:1018A000D2180020245B00204C5C00081059002056
:1018B00000000020605C000870B54FF47A731B22B2
:1018C0001A491B4801F0B8FB1A4E1B4C40F2C113D9
:1018D00032781A49204603F0C3FA194D4FF47A734F
:1018E00013222146284601F0A7FB4FF47A7002F03C
:1018F000C7FB4FF47A7340F2C1121249284601F037
:101900009BFBC82002F0BCFB32780F49204603F055
:10191000A7FA4FF47A7311222146284601F08CFB76
:101920004FF4967002F0ACFB70BD00BFA85C0008DD
:10193000785B0020D2180020245B00204C5C00085B
:101940001059002008170020605C00082DE9F041C4
:101950004FF47A7319223949394801F06DFB394E39
:10196000394F3A4C40F2AD1332783946204603F0F5
:1019700077FA374D4FF47A7313222146284601F047
:101980005BFB4FF4FA7002F07BFB4FF47A7340F28A
:10199000AD123049284601F04FFBC82002F070FB21
:1019A000DFF8C08098F8003032783946204603F0DE
:1019B00057FA4FF47A7313222146284601F03CFB74
:1019C0004FF4FA7002F05CFB4FF47A7398F8002041
:1019D0002149284601F030FBC82002F051FB4FF4AA
:1019E000F87332783946204603F03AFA4FF47A73A6
:1019F00013222146284601F01FFB4FF4FA7002F033
:101A00003FFB4FF47A734FF4F8721449284601F003
:101A100013FBC82002F034FB32781149204603F052
:101A20001FFA4FF47A7311222146284601F004FB75
:101A30004FF4967002F024FBBDE8F081145C0008BE
:101A4000785B0020D21800204C5C0008245B00204A
:101A500010590020E00800200C5C0020900A0020B3
:101A6000605C0008085C002010B54FF47A73162201
:101A70002149224801F0E0FA00231C4601E001332D
:101A8000DBB21F4A12789A4212D95A1F1D498A5C4A
:101A90006E2AF4D11A1F8A5C612AF0D1DA1E8A5CA0
:101AA0006D2AECD1981E0A5C652AE8D10124E6E78C
:101AB000F4B1FFF70BFA20B9FFF722F8B0F1FF3FBE
:101AC00002D1FFF743FF15E00C4C4FF0FF33182213
:101AD0000D49204601F0B0FA4FF47A730D220B49FC
:101AE000204601F0A9FAFEF741FEFFF7E5FE01E00E
:101AF000FFF798FE10BD00BF74580008785B002007
:101B00005E19002050590020245B00208C580008EA
:101B100010B54FF47A7319221749184801F08CFA5E
:101B200000231C4601E00133DBB2154A12789A42C9
:101B300012D95A1F13498A5C6E2AF4D11A1F8A5C83
:101B4000612AF0D1DA1E8A5C6D2AECD1981E0A5CFB
:101B5000652AE8D10124E6E75CB1FFF7B7F910B9CF
:101B6000FFF7ACF810B1FFF7F1FE04E0FFF7D8FD86
:101B700001E0FFF7A5FC10BD9C580008785B002031
:101B80005E1900205059002010B54FF47A731522C9
:101B90001D491E4801F050FA00231C4601E00133A4
:101BA000DBB21B4A12789A4212D95A1F19498A5C31
:101BB0006E2AF4D11A1F8A5C612AF0D1DA1E8A5C7F
:101BC0006D2AECD1981E0A5C652AE8D10124E6E76B
:101BD000B4B1FFF77BF980B9FEF792FFB0F1FF3F98
:101BE0000BD04FF47A730D220B49084801F024FA08
:101BF000FEF764FDFFF794FD04E0FFF7A7FE01E0A8
:101C0000FFF714FC10BD00BF085B0008785B0020E4
:101C10005E19002050590020205B000870B54F4D20
:101C20004FF47A7318224E49284601F005FA4D4CBC
:101C30004D4B1A784D49204603F012F94FF47A7350
:101C400014222146284601F0F7F9494E3246494907
:101C5000204603F005F9484B1A784FF47A730D3299
:101C60002146284601F0E8F9444B002119605960EB
:101C70001981434B19605960C3F80710322241485B
:101C800003F0E6F83378632B0ED0732B21D0652B4D
:101C90002AD0632B43D0652B03D1354B5B78722B55
:101CA0004CD0FFF75DFB70BD72786F2AEDD1B27832
:101CB0006E2AEAD1F278742AE7D13279612AE4D126
:101CC0007279632AE1D1B279742ADED1FFF720FF5D
:101CD000E9E7274A52786D2AD9D1254A9278732AA2
:101CE000D5D1FFF751FFDEE7214A52786E2AD0D1D5
:101CF0001F4A9278642ACCD11D4AD278632AC8D16F
:101D00001B4A1279612AC4D1194A52796C2AC0D16E
:101D1000174A92796C2ABCD1FFF76CFBC3E7144ACF
:101D20005278612AB7D1124A92786C2AB3D1104AFC
:101D3000D2786C2AAFD1FFF797FEB4E70C4B9B78B3
:101D4000612BAED10A4BDB78732BAAD1084B1B79E0
:101D5000652BA6D1FFF72EFDA5E700BF785B00201D
:101D6000C45D0008245B0020D2180020E05A00085F
:101D700050590020F85A00085E19002088590020A8
:101D8000605B00204C5C002008B509E0FFF746FFCF
:101D9000064B00221A7001220549064801F0BCF9E1
:101DA000024B1B78002BFBD0F0E700BF5F1900202F
:101DB000C45B00201059002038B50268304B9A42AD
:101DC00000D038BD2F4B1B78012B1AD02E4B1B781F
:101DD0002E4A11782E4AD154181F125C492A25D058
:101DE000472A04D1DA1E2A498A5C452A2BD00122CF
:101DF0002649284801F090F9234A137801331370DB
:101E0000DFE7224B1A78202A09D0234B1B78322B8C
:101E100005D02249CA5401331F4A1370D6E7194B23
:101E200000221A701E4B01221A70CFE7D81E184CE0
:101E3000205C5028D4D1981E205C4428D0D1303961
:101E400018480170CCE7023BCB5C542BCFD1012565
:101E50000C4B1D7000240C4B1C704FF4C8722146B3
:101E60000B4802F0F5FF322221460C4802F0F0FF49
:101E7000094B1C702A460549064801F04DF9BBE79D
:101E8000004800406019002061190020C45B002058
:101E900094590020105900205E190020505900204C
:101EA0005F190020D218002008B50268034B9A423F
:101EB00000D008BD02F0D2F8FBE700BF00200040D0
:101EC00008B5284C4FF47A7316222749204601F0B2
:101ED000B3F84FF47A7314222449204601F0ACF889
:101EE0004FF47A7316222249204601F0A5F8214CBE
:101EF00001224FF40051204602F018F801224FF45D
:101F00008051204602F012F801224FF48041204611
:101F100002F00CF801224FF40041204602F006F8CE
:101F20004FF47A7002F0ACF800224FF400512046D2
:101F300001F0FCFF00224FF48051204601F0F6FF33
:101F400000224FF48041204601F0F0FF00224FF4C0
:101F50000041204601F0EAFF4FF47A7002F090F859
:101F6000C5E700BF785B0020C45C0008DC5C0008AB
:101F7000F45C0008000C024008B50A480A4B0360F4
:101F80004FF4E133436000238360C36003610C229C
:101F900042618361C36101F020F800B908BDFFF719
:101FA0008FFF00BFC85B00200044004008B50A480E
:101FB0000A4B03604FF4E133436000238360C36046
:101FC00003610C2242618361C36101F006F800B92C
:101FD00008BDFFF775FF00BF105900200048004002
:101FE00008B50A480A4B03604FF4E133436000230D
:101FF0008360C36003610C2242618361C36100F0AE
:10200000ECFF00B908BDFFF75BFF00BF785B002065
:102010000014014000B595B03022002108A802F05C
:1020200017FF0023039304930593069307930193EB
:10203000214A116C41F080511164126C02F08052FF
:102040000192019A02931D4B1A6842F480421A6071
:102050001B6803F480430293029B012308934FF40F
:102060008033099302230E934FF480020F920822CB
:1020700010924FF4A872119212930723139308A899
:1020800001F06EF998B90F23039302230493002300
:1020900005934FF4A05306934FF480530793052103
:1020A00003A801F093FB20B915B05DF804FBFFF71E
:1020B00007FFFFF705FF00BF003802400070004037
:1020C00000B589B001F0B0FFFFF7A4FFFEF752FAA8
:1020D000FFF752FFFFF76AFFFFF782FF304C4FF424
:1020E0007A7318222F49204600F0A6FF4FF47A7326
:1020F0000B222D49204600F09FFFFEF763FB2B4D7E
:1021000001224FF47041284601F010FF4FF47A731A
:1021100011222749204600F08FFFFEF79DFA00228A
:102120004FF47041284601F001FF4FF4487001F070
:10213000A7FF01224FF47041284601F0F7FE4FF44B
:102140007A7311221B49204600F076FF0120FEF72A
:102150005BFE4FF47A731C221749204600F06CFF97
:1021600000224FF47041284601F0E0FEFEF75EFBCE
:102170004FF47A7316221149204600F05DFF01AC3E
:102180000F4D0FCD0FC495E8070084E8070000212C
:1021900001A802F01CFB0B4B186002F013FBFEE7DA
:1021A000785B0020705D00088C5D0008000C024028
:1021B000985D0008AC5D0008C05D0008E05D0008A7
:1021C000AC5600080C590020074B984207D80388EA
:1021D0009BB24FF6FF72934203D10430F4E7012023
:1021E00070470020704700BFFF8F0008114B1B880D
:1021F0009BB2114A128892B288B1012813D13AB920
:102200004EF6EE618B4201D001230DE013460BE048
:1022100063B94EF6EE618A4206D1012304E01BB198
:1022200032B9012300E0002318467047AB23FBE7D7
:10223000AB23F9E70080000800C0000870B5054630
:102240000E460120FFF7D2FFAB2821D000F5004455
:1022500008342403431C0F4800EB0330844216D299
:102260002368B3F1FF3F01D00434F7E7B2B2002393
:102270002146012001F07EFC08B180B208E0AAB23C
:102280000023A11C012001F075FC80B200E0802039
:1022900070BD00BFFF7F000810B586B00023059316
:1022A0000093022302930122039204931048FFF744
:1022B0008BFF28B905A9684601F00AFD044638B924
:1022C000002200230A49012001F054FC044610B109
:1022D000204606B010BD032302930648FFF774FFA3
:1022E0000028F5D105A9684601F0F2FC0446EFE7A5
:1022F0000080000800C0000838B504460D460020E4
:10230000FFF774FFAB2816D000F500420832120325
:10231000431C094800EB0330931C83420AD2038814
:102320009BB2A34201D00438F6E730F8023C2B8080
:10233000002000E0012038BDFE7F0008F0B587B026
:10234000002305938E4A1588ADB202F580421488A9
:10235000A4B20093022302930122039204934EF647
:10236000EE639D4240D04FF6FF739D420BD0002D8F
:1023700000F0A280FFF790FF002840F0FE800024CC
:10238000204607B0F0BD44B14EF6EE639C4213D038
:10239000FFF782FF30BB0024F2E77948FFF714FF14
:1023A00005460028ECD105A9684601F091FC08B962
:1023B0002C46E5E784B2E3E77148FFF705FF20B953
:1023C00005A9684601F084FC40B9002200236D494C
:1023D000012001F0CFFB18B90024D1E784B2CFE788
:1023E00084B2CDE784B2CBE754B34FF6FF739C427F
:1023F00048D0FFF751FF00285CD10024C0E72FB27E
:102400000CE00135ADB2022D1ED85F4B1B889BB28C
:102410002E465E4A32F815008342F0D0BE42F0D01C
:102420005B49FFF769FF0128EBD0594B1988574BDF
:1024300033F81600FFF702FF0028E2D004469FE7BA
:1024400025464FF0FF37DEE7002200234C490120EC
:1024500001F090FB08B184B292E7032302930123B9
:102460000393022304934748FFF7AEFE0546002876
:1024700086D105A9684601F02BFC08B92C467FE7F8
:1024800084B27DE7032302933E48FFF79DFE20B907
:1024900005A9684601F01CFC40B900220023384918
:1024A000012001F067FB18B9002469E784B267E7EF
:1024B00084B265E784B263E73CB14FF6FF739C4298
:1024C0000AD02E464FF0FF371CE0FFF7E5FE00284C
:1024D0003FF456AF84B253E7032302932948FFF732
:1024E00073FE044608B12C464AE705A9684601F088
:1024F000EFFB00283FF444AF84B241E737B20CE071
:102500000136B6B2022E1AD8224B1B889BB2344633
:102510001E4A32F816008342F0D0BC42F0D01C496B
:10252000FFF7EAFE0128EBD0194B1988174B33F857
:102530001400FFF783FE04460028E1D020E70022C4
:1025400000231049012001F015FB08B184B217E700
:10255000022302930122039204930948FFF734FEF9
:10256000044608B12C460BE705A9684601F0B0FB0C
:1025700000283FF405AF84B202E784B200E700BF51
:102580000080000800C0000806800008CC18002069
:102590006219002006C000082DE9F04186B005460A
:1025A0000F4600200590FFF721FE012811D00028DA
:1025B0004DD14FF00208274E4EF6EE620023314611
:1025C000012001F0D7FA40B184B2204606B0BDE840
:1025D000F0814FF00308204EEEE739462846FFF71A
:1025E0002DFE044610B1F0E70134A4B2022C14D839
:1025F0001A4B33F81400A842F6D01949FFF77CFEB5
:102600000128F1D0164B1988144B33F81400FFF74A
:1026100015FE0028E8D00446D7E700230093CDF844
:102620000880012303930223049305A9684601F05F
:102630004FFB08B184B2C8E70022002331460120D5
:1026400001F098FA08B984B2BFE784B2BDE7AB24C1
:10265000BBE700BF00C0000800800008CC180020C5
:102660006219002038B504460D46FFF7E7FD8028C3
:1026700000D038BD29462046FFF78EFFF9E700005D
:10268000034B0360034B0B6080231360704700BF54
:10269000641B0020641900207047FEE7FEE7FEE798
:1026A000FEE7704708B5012001F048FC08BD0000B6
:1026B00008B5024800F0BCFD08BD00BFC85B0020A3
:1026C00008B5024800F0B4FD08BD00BF1059002055
:1026D00008B5024800F038F908BD00BF805C002052
:1026E00000B583B0002200920D4B596C41F480413B
:1026F0005964596C01F48041009100990192196C60
:1027000041F0805119641B6C03F080530193019BCD
:102710000F216FF0010001F045FC03B05DF804FBF0
:10272000003802402DE9F0418CB000230793089354
:1027300009930A930B930368514A934208D0514A74
:10274000934232D0504A934275D00CB0BDE8F0812C
:10275000002400944D4B1A6C42F400321A641A6C37
:1027600002F400320092009A01941A6B42F00102C6
:102770001A631B6B03F001030193019B0C23079366
:10278000022308930123099303230A9307230B933E
:1027900007A93F4801F0E6FA22460521262001F06C
:1027A00001FC262001F032FCCFE700240294374BD5
:1027B0001A6C42F480221A641A6C02F4802202928B
:1027C000029A03941A6B42F002021A631A6B02F027
:1027D00002020392039A04941A6B42F008021A63ED
:1027E0001B6B03F008030493049B4FF400630793EF
:1027F0004FF00208CDF820800127099703260A969A
:1028000007250B9507A9234801F0ACFA4FF4807314
:102810000793CDF8208009970A960B9507A91E48C3
:1028200001F0A0FA22460521272001F0BBFB27205A
:1028300001F0ECFB89E700210591144B5A6C42F042
:1028400020025A645A6C02F020020592059A069101
:102850001A6B42F004021A631B6B03F00403069325
:10286000069BC023079302230893012309930323A4
:102870000A9308230B9307A9084801F073FA64E749
:10288000004400400048004000140140003802406D
:102890000000024000040240000C02400008024018
:1028A00010B588B0002201462D2001F07BFB2D20C1
:1028B00001F0ACFB00240194144B1A6C42F48072BA
:1028C0001A641B6C03F480730193019B02A903A893
:1028D00001F050F801F02EF843000D48A0FB03234F
:1028E0009B0C013B0B480C4A026040F2E732C2608D
:1028F00043600461846000F049F910B1012008B020
:1029000010BD044800F00BF8F9E700BF00380240A2
:1029100083DE1B43805C002000200040704702687B
:10292000D36843F00103D3600268936803F00703A0
:10293000062B03D0136843F0010313600020704797
:10294000704770477047704710B5044603681A69AE
:1029500012F0020F11D0DA6812F0020F0DD06FF0F2
:1029600002021A610123037703689B6913F0030FC6
:1029700070D0FFF7E6FF0023237723681A6912F06F
:10298000040F12D0DA6812F0040F0ED06FF00402B8
:102990001A610223237723689B6913F4407F5FD079
:1029A0002046FFF7CEFF0023237723681A6912F031
:1029B000080F12D0DA6812F0080F0ED06FF008027C
:1029C0001A61042323772368DB6913F0030F4ED0C9
:1029D0002046FFF7B6FF0023237723681A6912F019
:1029E000100F12D0DA6812F0100F0ED06FF0100234
:1029F0001A61082323772368DB6913F4407F3DD0F5
:102A00002046FFF79EFF0023237723681A6912F000
:102A1000010F03D0DA6812F0010F36D123681A696A
:102A200012F0800F03D0DA6812F0800F34D12368DF
:102A30001A6912F0400F03D0DA6812F0400F32D159
:102A400023681A6912F0200F03D0DA6812F0200F01
:102A500030D110BDFFF774FF2046FFF773FF8AE700
:102A60002046FFF76DFF2046FFF76CFF9BE72046EF
:102A7000FFF766FF2046FFF765FFACE72046FFF74C
:102A80005FFF2046FFF75EFFBDE76FF001021A61AE
:102A90002046FFF709FAC1E76FF080021A6120466D
:102AA00000F08FF8C3E76FF040021A612046FFF78D
:102AB0004AFFC5E76FF020021A61204600F080F857
:102AC000C7E700000368304A904212D0B0F1804F4F
:102AD0000FD0A2F57C4290420BD002F5806290426A
:102AE00007D002F58062904203D002F5784290420E
:102AF00003D123F070034A681343234A90422AD03B
:102B0000B0F1804F27D0A2F57C42904223D002F54D
:102B1000806290421FD002F5806290421BD002F585
:102B20007842904217D002F57052904213D002F5CD
:102B3000806290420FD002F5806290420BD0A2F5E5
:102B40009832904207D002F58062904203D002F59D
:102B50008062904203D123F44073CA68134323F088
:102B600080034A69134303608B68C3620B68836206
:102B7000054B984203D003F58063984201D10B695D
:102B8000036301234361704700000140B0B110B5F9
:102B9000044690F83D3063B1022384F83D3021466D
:102BA00051F8040BFFF78EFF012384F83D3000201D
:102BB00010BD80F83C30FFF7B1FEEDE70120704713
:102BC000704770470268D36823F49073D36002683B
:102BD000536923F001035361202380F83A30704792
:102BE00090F83930DBB2212B01D002207047836886
:102BF000B3F5805F16D0036A5A1C02621A78036824
:102C00005A60C38C013B9BB2C3844BB90268D36842
:102C100023F08003D3600268D36843F04003D3609D
:102C200000207047036A1B880268C3F308035360DF
:102C300003691BB9036A02330362E2E7036A0133E3
:102C40000362DEE72DE9F84304460268136923F4C2
:102C50004053C1680B43136183680269134342699F
:102C60001343C2691A430168CB6823F4164323F067
:102C70000C031343CB600268536923F440738169EA
:102C80000B435361C369B3F5004F60D00368B84A82
:102C9000934200F0148102F58062934200F00F81AC
:102CA00000F048FE00EB800000EB80006568AD009E
:102CB000B0FBF5F5AF4FA7FB05356D092E0100F010
:102CC00039FE00EB800000EB80006568AD00B0FBD2
:102CD000F5F900F02FFE00EB800000EB8000656846
:102CE000AD00B0FBF5F5A7FB05356D094FF06408A5
:102CF00008FB15952D013235A7FB05356D0905F04B
:102D0000F005354400F016FE00EB800000EB80007B
:102D10006668B600B0FBF6F600F00CFE00EB800033
:102D200000EB800063689B00B0FBF3F0A7FB003072
:102D3000400908FB10684FEA081808F13208A7FBA1
:102D40000837C7F3431723682F449F600DE10368DA
:102D5000874A93425BD002F58062934257D000F0DD
:102D6000E9FD00EB800000EB800065686D00B0FBC2
:102D7000F5F5804FA7FB05356D092E0100F0DAFD52
:102D800000EB800000EB800065686D00B0FBF5F99A
:102D900000F0D0FD00EB800000EB800065686D0066
:102DA000B0FBF5F5A7FB05356D094FF0640808FB8E
:102DB0001595ED003235A7FB05356D096D0005F45D
:102DC000F875354400F0B6FD00EB800000EB8000A4
:102DD00066687600B0FBF6F600F0ACFD00EB800014
:102DE00000EB800063685B00B0FBF3F3A7FB0323F9
:102DF0005B0908FB13684FEAC80808F13208A7FB13
:102E00000837C7F3421723682F449F60ADE000F0F6
:102E1000A1FD00EB800000EB800065686D00B0FB59
:102E2000F5F5544FA7FB05356D092E0100F092FD15
:102E300000EB800000EB800065686D00B0FBF5F9E9
:102E400000F088FD00EB800000EB800065686D00FD
:102E5000B0FBF5F5A7FB05356D094FF0640808FBDD
:102E60001595ED003235A7FB05356D096D0005F4AC
:102E7000F875354400F06EFD00EB800000EB80003B
:102E800066687600B0FBF6F600F064FD00EB8000AB
:102E900000EB800063685B00B0FBF3F3A7FB032348
:102EA0005B0908FB13684FEAC80808F13208A7FB62
:102EB0000837C7F3421723682F449F6055E000F09E
:102EC00049FD00EB800000EB80006568AD00B0FBC1
:102ED000F5F5284FA7FB05356D092E0100F03AFDE9
:102EE00000EB800000EB80006568AD00B0FBF5F9F9
:102EF00000F030FD00EB800000EB80006568AD0065
:102F0000B0FBF5F5A7FB05356D094FF0640808FB2C
:102F100015952D013235A7FB05356D0905F0F00536
:102F2000354400F017FD00EB800000EB8000666880
:102F3000B600B0FBF6F600F00DFD00EB800000EBF4
:102F4000800063689B00B0FBF3F0A7FB00304009F2
:102F500008FB10684FEA081808F13208A7FB083789
:102F6000C7F3431723682F449F60BDE8F88300BF71
:102F7000001001401F85EB512DE9F04105460F4639
:102F800016469846069C2B681B6837EA03030CBF5D
:102F900001230023B3421DD1B4F1FF3FF3D02CB184
:102FA00001F068F8A0EB0800A042ECD92A68D368C9
:102FB00023F4D073D3602A68536923F0010353616B
:102FC000202385F8393085F83A30002385F83830E9
:102FD000032000E00020BDE8F08158B310B504469E
:102FE00090F839300BB3242384F839302268D36841
:102FF00023F40053D3602046FFF724FE22681369B0
:1030000023F4904313612268536923F02A03536128
:103010002268D36843F40053D3600020E063202388
:1030200084F8393084F83A3010BD80F83830FFF732
:1030300079FBD8E7012070472DE9F04182B01E46A8
:1030400090F83930DBB2202B55D104460D4690461E
:10305000002955D0002A55D090F83830012B53D094
:10306000012380F838300023C363212380F83930EE
:1030700001F000F80746A4F82480A4F8268010E0A8
:1030800000963B46002280212046FFF775FF00286E
:103090003CD12B882268C3F3080353602369C3B96A
:1030A0000235E38C9BB2B3B1E38C013B9BB2E3846A
:1030B000A368B3F5805FE3D000963B4600228021F1
:1030C0002046FFF759FF18BB15F8012B23685A60FB
:1030D000E7E70135E5E700963B4600224021204620
:1030E000FFF74AFF0346A8B9202284F839200022BE
:1030F00084F8382000E00223184602B0BDE8F081D1
:103100000123F9E70123F7E70223F5E70323F3E7B8
:103110000323F1E70323EFE790F83A30DBB2202BEB
:1031200020D109B312B390F83830012B20D081623E
:103130008285C2850023C363222280F83A2080F86A
:1031400038300168CA6842F48072CA6001684A690E
:1031500042F001024A610168CA6842F02002CA6076
:1031600018467047022070470120704701207047C1
:1031700002207047704708B50168CB6823F0400310
:10318000CB60202380F83930FFF7F4FF002008BD22
:1031900008B590F83A30DBB2222B45D18368B3F5FD
:1031A000805F0ED0036903BB03685A68836A591CA9
:1031B00081621A70C38D013B9BB2C385F3B10020BD
:1031C00008BD826A036943B903685B68C3F30803F7
:1031D0001380836A02338362ECE703685B68DBB2C7
:1031E0001380836A01338362E4E703685B68826A61
:1031F000511C816203F07F031370DBE70268D36820
:1032000023F02003D3600268D36823F48073D36073
:103210000268536923F001035361202380F83A3098
:10322000FEF7CAFD0020CBE70220C9E77047000087
:1032300010B5044602681368D168526913F00F0094
:1032400005D113F0200F02D011F0200F13D128B1B7
:1032500012F0010213D111F4907F10D113F0800FFE
:1032600002D011F0800F69D113F0400F02D011F09D
:10327000400F67D110BD2046FFF78AFFFAE713F031
:10328000010F06D011F4807F03D0E06B40F0010005
:10329000E06313F0040F04D01AB1E06B40F00200B9
:1032A000E06313F0020F04D01AB1E06B40F00400A9
:1032B000E06313F0080F04D01AB1E26B42F0080289
:1032C000E263E26B002AD5D013F0200F02D011F098
:1032D000200F21D123685B6903F04003E26B12F0F9
:1032E000080F00D123B32046FFF76CFC23685A690E
:1032F00012F0400F18D05A6922F040025A61636BF5
:1033000073B1124A1A65606B00F026FE0028B1D036
:10331000606B036D9847ADE72046FFF739FFD9E7AB
:103320002046FFF783FFA5E72046FFF77FFFA1E7D1
:103330002046FFF77BFF0023E3639BE72046FFF770
:103340004FFC97E72046FFF716FF93E7513300083D
:1033500008B5806B0023C385C384FFF767FF08BDF2
:10336000002800F0B98170B582B00446036813F0FC
:10337000010F3BD0A64B9B6803F00C03042B2CD011
:10338000A34B9B6803F00C03082B21D06368B3F5B3
:10339000803F4FD0B3F5A02F52D09D4B1A6822F436
:1033A00080321A601A6822F480221A606368002B47
:1033B00050D000F05FFE0546954B1B6813F4003FAC
:1033C00014D100F057FE401B6428F5D903208AE190
:1033D0008F4B5B6813F4800FD8D08D4B1B6813F4B0
:1033E000003F03D06368002B00F07881236813F05E
:1033F000020F54D0864B9B6813F00C0F3ED0844BC9
:103400009B6803F00C03082B33D0E368002B67D0D4
:10341000804B01221A6000F02DFE05467C4B1B6894
:1034200013F0020F53D100F025FE401B0228F5D9FE
:10343000032058E1764A136843F480331360B5E7FC
:10344000734B1A6842F480221A601A6842F4803280
:103450001A60ABE700F00EFE05466D4B1B6813F4D7
:10346000003FC3D000F006FE401B6428F5D90320BE
:1034700039E1674B5B6813F4800FC6D1644B1B685E
:1034800013F0020F03D0E368012B40F02981604A5A
:10349000136823F0F803216943EAC103136023682A
:1034A00013F0080F40D0636963B35B4B01221A60CD
:1034B00000F0E0FD0546564B5B6F13F0020F33D171
:1034C00000F0D8FD401B0228F5D903200BE1504A3B
:1034D000136823F0F803216943EAC1031360DEE7B0
:1034E0004C4B00221A6000F0C5FD0546484B1B6896
:1034F00013F0020FD3D000F0BDFD401B0228F5D918
:103500000320F0E0444B00221A6000F0B3FD0546B2
:103510003F4B5B6F13F0020F06D000F0ABFD401B7A
:103520000228F5D90320DEE0236813F0040F78D0D9
:10353000374B1B6C13F0805F33D100230193344B66
:103540001A6C42F080521A641B6C03F08053019392
:10355000019B0125314B1B6813F4807F23D0A368A6
:10356000012B34D0052B38D0294B1A6F22F00102E1
:103570001A671A6F22F004021A67A368002B36D06C
:1035800000F078FD0646224B1B6F13F0020F47D167
:1035900000F070FD801B41F288339842F3D903207C
:1035A000A1E00025D6E71D4A136843F48073136039
:1035B00000F060FD0646194B1B6813F4807FCED1E6
:1035C00000F058FD801B0228F5D903208BE0104A3B
:1035D000136F43F001031367CFE70D4B1A6F42F0EF
:1035E00004021A671A6F42F001021A67C5E700F079
:1035F00041FD0646064B1B6F13F0020F10D000F082
:1036000039FD801B41F288339842F3D903206AE0E8
:103610000038024000004742800E474200700040E0
:10362000E5B9A369002B5DD0314A926802F00C0223
:10363000082A5AD0022B17D02E4B00221A6000F015
:1036400019FD04462A4B1B6813F0007F42D000F09E
:1036500011FD001B0228F5D9032044E0244A136C15
:1036600023F080531364DCE7224B00221A6000F041
:1036700001FD05461E4B1B6813F0007F06D000F0CD
:10368000F9FC401B0228F5D903202CE0E369226AEB
:103690001343626A43EA8213A26A5208013A43EA78
:1036A0000243E26A43EA0263114A5360114B01226A
:1036B0001A6000F0DFFC04460D4B1B6813F0007F1E
:1036C00006D100F0D7FC001B0228F5D903200AE040
:1036D000002008E0002006E001207047012002E001
:1036E000012000E0002002B070BD0120FBE700BF18
:1036F0000038024060004742314B9B6803F00C03E6
:10370000042B58D0082B58D170B52D4B5A6802F0B5
:103710003F025B6813F4800F2AD0294B5868C0F32E
:1037200088100546002643011B1A66EB0604A1011A
:1037300041EA93619801C01A61EB0401CB0043EAAE
:103740005073C4001946601946EB01014B0243EA6D
:10375000D0534402204619463346FCF789FD184BE6
:103760005B68C3F3014301335B00B0FBF3F070BD52
:10377000134B5868C0F388100546002643011B1AF6
:1037800066EB0604A10141EA93619801C01A61EB5E
:103790000401CB0043EA5073C4001946601946EB9C
:1037A00001018B0243EA90538402204619463346B6
:1037B000FCF75EFDD3E7034870470348704700BF3E
:1037C0000038024000127A000024F400002800F0C3
:1037D0009A8070B50446504B1B6803F00F038B4270
:1037E00008D2CBB24C4A1370136803F00F038B421C
:1037F00040F08B80236813F0020F17D013F0040FF2
:1038000004D0464A936843F4E0539360236813F06E
:10381000080F04D0414A936843F4604393603F4AE1
:10382000936823F0F003A068034393600D46236878
:1038300013F0010F32D06368012B21D09A1E012AA8
:1038400025D9364A126812F0020F60D033498A68CF
:1038500022F0030213438B6000F00CFC06462F4B52
:103860009B6803F00C036268B3EB820F16D000F084
:1038700001FC801B41F288339842F0D9032041E0DB
:10388000264A126812F4003FE0D101203AE0234AB0
:10389000126812F0007FD9D1012033E01E4B1B6863
:1038A00003F00F03AB4207D9EAB21B4B1A701B6837
:1038B00003F00F03AB422CD1236813F0040F06D0A2
:1038C000164A936823F4E053E1680B43936023683E
:1038D00013F0080F07D0114A936823F4604321695D
:1038E00043EAC1039360FFF707FF0C4B9B68C3F3E8
:1038F00003130B4AD35CD8400A4B18600020FEF734
:10390000CFFF002070BD012070470120FAE70120A1
:10391000F8E70120F6E700BF003C02400038024013
:10392000045E0008D4180020014B1868704700BFDF
:10393000D418002008B5FFF7F7FF044B9B68C3F3CA
:103940008223034AD35CD84008BD00BF0038024040
:10395000145E000808B5FFF7E7FF044B9B68C3F34C
:103960004233034AD35CD84008BD00BF0038024050
:10397000145E00080F2303600B4B9A6802F00302E9
:1039800042609A6802F0F00282609A6802F4E052A3
:10399000C2609B68DB0803F4E0530361034B1B68C0
:1039A00003F00F030B60704700380240003C0240F8
:1039B00010B409490C6924F440740C610C6944F496
:1039C00040740C610C6944F001040C6102604360B6
:1039D0005DF8044B704700BF003C0240074B1A697A
:1039E00022F440721A611A6942F400721A611A696B
:1039F00042F001021A610160704700BF003C0240C2
:103A0000074B1A6922F440721A611A6942F48072F3
:103A10001A611A6942F001021A610180704700BF01
:103A2000003C0240064B1A6922F440721A611A697E
:103A30001A611A6942F001021A610170704700BFF1
:103A4000003C0240204BDB6813F0100F07D01F4AE8
:103A5000D36943F01003D3611B4B1022DA601A4B79
:103A6000DB6813F0200F07D0184AD36943F008032E
:103A7000D361154B2022DA60134BDB6813F0400F43
:103A800007D0124AD36943F00403D3610E4B40229E
:103A9000DA600D4BDB6813F0800F07D00B4AD36957
:103AA00043F00203D361084B8022DA60064BDB68E7
:103AB00013F0020F07D0054AD36943F02003D36106
:103AC000014B0222DA607047003C0240C05C0020DB
:103AD000094B1B69002B01DB00207047064B074A8E
:103AE0005A6002F188325A601B69002B01DB00200A
:103AF00070470120704700BF003C0240230167452A
:103B0000034A136943F0004313610020704700BF6C
:103B1000003C024038B50446144B0022DA6100F044
:103B2000A9FA0546124BDB6813F4803F0AD0B4F1C2
:103B3000FF3FF7D024B100F09DFA401BA042F1D91D
:103B400003200DE00A4BDB6813F0010F02D0084B95
:103B50000122DA60064BDB6813F0F20F01D100207E
:103B600038BDFFF76FFF0120FAE700BFC05C0020FF
:103B7000003C0240F8B51D4C247E012C34D01F4679
:103B800016460D460446194B01221A764CF2503067
:103B9000FFF7C0FF014698B9BCB1012C1AD0022C26
:103BA0001DD032463B462846FFF702FF4CF250300C
:103BB000FFF7B0FF01460E4A136923F001031361BA
:103BC0000A4B00221A760846F8BDF1B22846FFF7E4
:103BD00029FFEBE7B1B22846FFF712FFE6E73146CF
:103BE0002846FFF7FBFEE1E70221ECE7C05C00207E
:103BF000003C0240074B1A6922F440721A611A69AC
:103C000042F004021A611A6942EA002040F480304E
:103C100018617047003C024010B449B1012921D01D
:103C2000022902D04FF4407203E04FF4007200E02A
:103C300000220E4B1C6924F440741C611969114365
:103C40001961196921F0F80119611A6942EAC00283
:103C500042F002021A611A6942F480321A615DF878
:103C6000044B70474FF48072E3E700BF003C024012
:103C7000164B1B6813F4007F10D0144B1A6822F403
:103C800000721A601A6842F400621A601A6822F41C
:103C900000621A601A6842F400721A600B4B1B68CB
:103CA00013F4806F10D0094B1A6822F480621A60F6
:103CB0001A6842F480521A601A6822F480521A601C
:103CC0001A6842F480621A60704700BF003C0240EC
:103CD000F8B5224B1B7E012B3ED00E4604461F4BEF
:103CE00001221A764CF25030FFF714FF074670BBE2
:103CF0004FF0FF3333602368012B16D0A568E368CB
:103D0000A2681344AB4220D9217C2846FFF784FFE8
:103D10004CF25030FFF7FEFE114A136923F0FA030C
:103D20001361074680B90135E9E76168207CFFF738
:103D300061FF4CF25030FFF7EDFE0746084A136969
:103D400023F00403136100E03560FFF791FF034B9C
:103D500000221A763846F8BD0227FBE7C05C002037
:103D6000003C024000230F2B00F2D680F0B482B05A
:103D700039E0072200E00022B2403A430235674EA4
:103D800046F82520664A1568E24302EA05064F68B0
:103D900017F4803F01D044EA0506614D2E606D683E
:103DA00002EA05064F6817F4003F01D044EA050611
:103DB0005B4D6E60AD6802EA05064F6817F4801F20
:103DC00001D044EA0506564DAE60ED682A404E68C3
:103DD00016F4001F01D044EA0502514CE2600133A1
:103DE0000F2B00F2968001229A400C681440A242E8
:103DF000F5D14D68022D01D0122D10D1DE08083604
:103E000050F826C003F00705AF000F25BD402CEA8F
:103E1000050C0D69BD4045EA0C0540F826500668C2
:103E20005F000325BD40ED4305EA060C4E6806F031
:103E30000306BE4046EA0C0606604E6806F1FF3CEB
:103E4000BCF1010F03D9112E01D0122E10D18668BA
:103E500005EA060CCE68BE4046EA0C068660466857
:103E600026EA02024E68C6F300169E4016434660DC
:103E7000C26815408A68BA402A43C2604A6812F094
:103E8000805FACD000220192264A556C45F48045F3
:103E90005564526C02F480420192019A9D08AE1C56
:103EA0001E4A52F8267003F0030296000F22B24019
:103EB00027EA02071C4A90423FF45DAF02F5806298
:103EC00090421AD002F58062904218D002F58062CA
:103ED000904216D002F58062904214D002F58062C2
:103EE000904212D002F58062904210D002F58062BA
:103EF00090423FF43EAF08223EE701223CE7022217
:103F00003AE7032238E7042236E7052234E706229F
:103F100032E702B0F0BC7047704700BF0038014084
:103F2000003C014000380240000002400AB18161BB
:103F300070470904816170477047000008B5054B60
:103F40005B69034200D108BD024B5861FFF7F4FFE3
:103F5000F9E700BF003C014090F83530DBB2022B9E
:103F600003D08023436501207047052380F8353056
:103F70000268136823F001031360002070470000FB
:103F8000074AD36823F4E0631B041B0C000200F40F
:103F9000E060184340F0BF6040F40030D0607047EC
:103FA00000ED00E030B4174BDB68C3F30223C3F12C
:103FB0000704042C28BF04241D1D062D01D9033B32
:103FC00000E000234FF0FF3505FA04F421EA040174
:103FD000994005FA03F322EA03031943002809DB99
:103FE0000901C9B200F1604000F5614080F800139A
:103FF00030BC704700F00F000901C9B2024B1954E0
:10400000F6E700BF00ED00E014ED00E0002807DB5C
:1040100000F01F02400901239340024A42F8203079
:10402000704700BF00E100E008B50B4B1A6842F48E
:1040300000721A601A6842F480621A601A6842F4C8
:1040400080721A600320FFF79BFF0020FEF728FC18
:10405000FEF746FB002008BD003C0240034A116801
:10406000034B1B780B441360704700BFE05C0020DB
:10407000D3180020014B1868704700BFE05C002097
:1040800038B50446FFF7F6FF0546B4F1FF3F02D00E
:10409000044B1B781C44FFF7EDFF401BA042FAD3F2
:1040A00038BD00BFD31800200F49D1F8883043F441
:1040B0007003C1F888300D4B1A6842F001021A6093
:1040C000002098601A6822F0847222F480321A600C
:1040D000074A5A601A6822F480221A60D8604FF0AA
:1040E00000638B60704700BF00ED00E000380240C5
:1040F0001030002400F1080343604FF0FF3282606B
:10410000C3600361002303607047002303617047AD
:1041100043684B609A688A605160996008610368DF
:104120000133036070470369416882688A604168AF
:1041300051605A68824206D0002202611A68013A30
:104140001A601868704782685A60F5E7084B1B6868
:104150001B6823B9074B4FF0FF321A607047044BBE
:104160001B68DB68DB685A68024B1A60704700BF47
:10417000BC1B0020901C00202DE9F047804699468A
:10418000089D099F0A9C266B02F18042013A06EBCA
:10419000820626F0070600230F2B06D8CA5CE0181B
:1041A00080F834200AB10133F6E7002384F8433065
:1041B000062D00D90625E56265644FF0000AC4F8B3
:1041C00048A0201DFFF7A1FF04F11800FFF79DFF95
:1041D0002461C5F10705A5616462C4F84CA084F8A8
:1041E00050A04A464146304600F07EFC206007B1B0
:1041F0003C60BDE8F087000038B50024062C08D8E4
:1042000004EB840293000E481844FFF773FF013457
:10421000F4E70C4D2846FFF76DFF0B4C2046FFF7E7
:1042200069FF0A48FFF766FF0948FFF763FF09487F
:10423000FFF760FF084B1D60084B1C6038BD00BFD6
:10424000C41B0020681C00207C1C0020981C00203F
:10425000C41C0020B01C0020BC1B0020C01B002080
:1042600010B5044600F06EFC204A13680133136059
:104270001F4B1B685BB11F4B1B686BB91C4B1B684A
:10428000DA6AE36A9A4207D8194B1C6004E0184BBB
:104290001C601368012B26D0174A13680133136082
:1042A000E36A01229A401549086802430A6003EB59
:1042B00083039A00211D12481044FFF729FF00F0E4
:1042C00063FC0C4B1B686BB1094B1B68DA6AE36A31
:1042D0009A4207D20B4B4FF080521A60BFF34F8FB8
:1042E000BFF36F8F10BDFFF787FFD5E7501C00208D
:1042F000B81B0020AC1C0020601C0020641C0020A7
:10430000C41B002004ED00E010B5044690F85130C5
:1043100063B1012B11D0022B0ED04FF0500383F369
:104320001188BFF36F8FBFF34F8FFEE7006B00F074
:1043300065FB204600F062FB10BD00F05FFBFBE771
:104340000F4B1B68D3B110B500F0FCFB0D4BDB68C5
:10435000DC68201DFFF7E7FE0B4A1368013B136082
:10436000074A1368013B136000F00EFC2046FFF77C
:10437000CBFF034B1B68002BE6D110BD704700BF7D
:10438000541C0020C41C0020501C002008B5FFF75E
:10439000D7FF064B1B68012BF9D9054B4FF0805214
:1043A0001A60BFF34F8FBFF36F8FF0E7C41B00207D
:1043B00004ED00E070B586B00B9D0C9C75B1B4B1F6
:1043C00054260496049E542E1AD04FF0500383F3C3
:1043D0001188BFF36F8FBFF34F8FFEE74FF050038D
:1043E00083F31188BFF36F8FBFF34F8FFEE74FF05A
:1043F000500383F31188BFF36F8FBFF34F8FFEE736
:104400002563022584F8515000250395029405ADDB
:1044100001950A9D0095FFF7AFFE2046FFF720FFAC
:10442000059806B070BD2DE9F04385B00746884673
:1044300015469946900000F05DFAF8B10646542002
:1044400000F058FA0446A8B10663E4B1002384F8EA
:104450005130039302940D9B01930C9B00934B46A8
:104460002A4641463846FFF787FE2046FFF7F8FE0A
:10447000012005E0304600F0C1FAE6E74FF0FF30DA
:1044800005B0BDE8F0834FF0FF30F9E710B588B014
:1044900000240594069407AA06A905A8FEF7F0F8DB
:1044A000059B0293069B019300942346079A0D49AE
:1044B0000D48FFF77FFF90B14FF0500383F3118851
:1044C000BFF36F8FBFF34F8F084B4FF0FF321A606F
:1044D000074B01221A60074B1C6000F0D5FB08B0A7
:1044E00010BD00BF1C5E00088D430008901C00201A
:1044F000AC1C0020D81C0020024A13680133136052
:10450000704700BF5C1C0020F8B53A4B1B68002BBD
:1045100064D1394B1D6801351D60C5B9374B1B6827
:104520001B6843B14FF0500383F31188BFF36F8FC3
:10453000BFF34F8FFEE7314A1168314B18681060A6
:104540001960304A136801331360FFF7FFFD2E4BEB
:104550001B68AB4238D900242C4B1B68DB6A03EB89
:1045600083039A002A4B9B58012B3CD901243AE043
:104570000124224B1B681B6843B3204B1B68DB687C
:10458000DE6873689D4226D3371D3846FFF7CBFDA2
:10459000B36A1BB106F11800FFF7C5FDF36A0122EB
:1045A0009A401C49086802430A6003EB83039A009F
:1045B000394617481044FFF7ABFDF26A134B1B68EE
:1045C000DB6A9A42D4D2D4E70024D2E70E4B4FF0F4
:1045D000FF321A60C0E70C4A1360BDE70E4A136849
:1045E0000133136000240D4B1B6803B101242046E6
:1045F000F8BD00BF5C1C0020D81C0020BC1B0020A4
:10460000C01B0020941C0020901C0020B81B002020
:10461000C41B0020641C0020581C0020DC1C00204F
:1046200038B5354B1B6843B94FF0500383F31188FD
:10463000BFF36F8FBFF34F8FFEE700F083FA2E4B6F
:104640001A68013A1A601B68002B4DD12B4B1B686E
:104650000BB9002449E00024294B1B681BB3284BED
:10466000DB68DC6804F11800FFF75DFD251D2846B6
:10467000FFF759FDE36A01229A4022490868024384
:104680000A6003EB83039A0029461F481044FFF792
:104690003FFDE26A1D4B1B68DB6A9A42DCD31C4B70
:1046A00001221A60D8E70CB1FFF750FD194B1C68C6
:1046B00074B9174B1B68E3B1174B4FF080521A6067
:1046C000BFF34F8FBFF36F8F01240EE0013C07D083
:1046D000FFF71AFF0028F9D00D4B01221A60F5E709
:1046E0000C4B00221A60E4E7002400F04DFA20464B
:1046F00038BD0024F9E700BF5C1C0020501C0020DE
:10470000981C0020641C0020C41B0020B81B002043
:10471000DC1C0020581C002004ED00E0214B1B682D
:104720001BB1214B01221A6070471F4B00221A60F7
:104730001E4B1B68B3FA83F3DBB2C3F11F0303EB19
:1047400083018A001A498A5842B94FF0500383F313
:104750001188BFF36F8FBFF34F8FFEE710B414487B
:104760009A00D418A10001444C6864684C601A4453
:1047700091000831084484420BD003EB83039A0074
:104780000B4B13445B68DA680A4B1A605DF8044B04
:104790007047606803EB83029100054A0A44506049
:1047A000EBE700BF5C1C0020DC1C0020641C002028
:1047B000C41B0020B81B0020842801D003307047A0
:1047C0000020704708B5FFF761FE002008BD2DE905
:1047D000F04387B004460F464569BDB18669AEB166
:1047E000D0F80480D0F80090B0F90800FFF7E4FF9B
:1047F0000296019500903B46226949464046FFF7E4
:10480000D9FD0590059807B0BDE8F0836568266876
:10481000D4F81080B4F90800FFF7CEFF05AB019380
:1048200000903B461FFA88F231462846FFF7FBFD11
:104830000128E7D00020E6E7124A12F0070F07D060
:10484000D11D21F00701C1F5705313440A4601E060
:104850004FF470530C480260002141601344083B40
:1048600023F007030948036059601960991A5160E1
:104870001360074B1960074B1960074B4FF000425C
:104880001A607047E41C0020F0580020E01C002053
:10489000EC580020E8580020E458002010B4134AD7
:1048A00000E01A4613688342FBD3516854188442CF
:1048B0000AD041684418A3420BD00360904200D054
:1048C00010605DF8044B7047406801445160104629
:1048D000EFE7074C2468A34206D05B6819444160A7
:1048E00013681B680360E9E70460E7E7F0580020FD
:1048F000E01C002070B50446FFF7FEFD3A4B1B6834
:10490000BBB13A4B1B681C4256D1ACB1083414F011
:10491000070F11D024F00704083404F007035BB13B
:104920004FF0500383F31188BFF36F8FBFF34F8FA6
:10493000FEE7FFF781FFE4E7002C3FD02C4B1B681C
:10494000A3424AD32B4B1D6801E02B4615466A68EB
:10495000A24202D22A68002AF7D1234A1268AA4248
:104960003DD01E6808362A681A606B681B1B102B26
:1049700010D9281910F0070F08D04FF0500383F317
:104980001188BFF36F8FBFF34F8FFEE743606C60FA
:10499000FFF784FF6A6816490B689B1A0B6016497B
:1049A00009688B4201D214490B60104B1B681343FA
:1049B0006B6000232B6002E0002600E00026FFF77A
:1049C0002FFE16F0070F0CD04FF0500383F3118821
:1049D000BFF36F8FBFF34F8FFEE70026EFE7002690
:1049E000EDE7304670BD00BFE01C0020E458002019
:1049F000E8580020F0580020EC58002080B338B56B
:104A00000446A0F1080550F8042C164909680A422A
:104A100008D14FF0500383F31188BFF36F8FBFF3BA
:104A20004F8FFEE750F8080C40B14FF0500383F36E
:104A30001188BFF36F8FBFF34F8FFEE722EA0102A9
:104A400044F8042CFFF758FD54F8041C064A136878
:104A50000B4413602846FFF721FFFFF7E1FD38BD47
:104A6000704700BFE4580020E858002082B00023BF
:104A700001930D4B1B68B3F1FF3F08D04FF050037B
:104A800083F31188BFF36F8FBFF34F8FFEE74FF0B3
:104A9000500383F31188BFF36F8FBFF34F8F019BD8
:104AA000002BFCD002B07047D818002008480068DE
:104AB000006880F308884FF0000080F3148862B625
:104AC00061B6BFF34F8FBFF36F8F00DF00BF0000F1
:104AD00008ED00E0DFF80C00016841F470010160AE
:104AE0007047000088ED00E04FF0807340F8043C10
:104AF00021F0010140F8081C054B40F80C3C40F83F
:104B0000202C6FF0020340F8243C4438704700BF6B
:104B10006D4A0008000000000000000000000000D6
:104B2000074B19680868B0E8F04F80F30988BFF3B5
:104B30006F8F4FF0000080F311887047AFF3008053
:104B4000B81B00204FF0500383F31188BFF36F8F21
:104B5000BFF34F8F0A4A136801331360012B00D053
:104B60007047084B1B6813F0FF0FF9D04FF050034C
:104B700083F31188BFF36F8FBFF34F8FFEE700BF42
:104B8000D818002004ED00E0094B1B6843B94FF032
:104B9000500383F31188BFF36F8FBFF34F8FFEE78E
:104BA000013B034A13600BB983F31188704700BFC0
:104BB000D8180020000000000000000000000000E5
:104BC000EFF30980BFF36F8F154B1A681EF0100FBB
:104BD00008BF20ED108A20E9F04F10602DE9090090
:104BE0004FF0500080F31188BFF34F8FBFF36F8FEA
:104BF000FFF794FD4FF0000080F3118809BC19689D
:104C00000868B0E8F04F1EF0100F08BFB0EC108A33
:104C100080F30988BFF36F8F704700BFAFF3008048
:104C2000B81B002008B54FF0500383F31188BFF381
:104C30006F8FBFF34F8FFFF767FC18B1034B4FF037
:104C400080521A60002383F3118808BD04ED00E050
:104C5000084A0023136008490B60084B1B68084989
:104C6000A1FB03139B09013B06490B60072313605B
:104C7000704700BF10E000E018E000E0D41800200A
:104C8000D34D621014E000E03A4B1A683A4B9A4256
:104C900029D0384B1A68394B9A422DD010B582B0C2
:104CA000374B1A78D2B20192FF221A701B78DBB20E
:104CB0008DF803309DF8033003F05003314A137030
:104CC000314B07221A609DF8033013F0800F1CD07F
:104CD0002D4A1368013B13609DF803305B00DBB283
:104CE0008DF80330EFE74FF0500383F31188BFF3E3
:104CF0006F8FBFF34F8FFEE74FF0500383F31188A0
:104D0000BFF36F8FBFF34F8FFEE71F4B1B68032B63
:104D100008D04FF0500383F31188BFF36F8FBFF3B8
:104D20004F8FFEE71B0203F4E063174A1360019BF9
:104D3000DBB2134A1370154B1A6842F470021A6002
:104D40001A6842F070421A60FFF782FF0024104B8D
:104D50001C60FFF7BFFE0F4A136843F04043136027
:104D6000FFF7A4FEFFF7DAFCFFF780FE204602B053
:104D700010BD00BF00ED00E071C20F4170C20F41D5
:104D800000E400E0F8580020FC58002020ED00E08E
:104D9000D818002034EF00E0DFF834D0002103E021
:104DA0000C4B5B58435004310B480C4B42189A4251
:104DB000F6D30B4A02E0002342F8043B094B9A4227
:104DC000F9D3FFF771F900F011F8FDF779F97047A1
:104DD00000000220685E000800000020401900204A
:104DE00040190020F45C0020FEE7000070B50D4D76
:104DF0000D4C641BA4100026A64209D10B4D0C4C8F
:104E000000F048FC641BA4100026A64205D170BD2A
:104E100055F8043B98470136EEE755F8043B9847B0
:104E20000136F2E7605E0008605E0008605E000820
:104E3000645E00080A44914200F1FF3300D17047DC
:104E400010B511F8014B03F8014F9142F9D110BD93
:104E500002440346934200D1704703F8011BF9E76F
:104E60000EB400B59CB01DAB029006906FF00041EF
:104E7000094807910491094953F8042B05910068EA
:104E8000019302A900F068F8029B00221A701CB07E
:104E90005DF804EB03B07047DC1800200802FFFF48
:104EA0002DE9F0478E689E4282460C469146984610
:104EB00038D8B1F80CC01CF4906F31D06269256805
:104EC000096902EB42026F1A02EBD27201335510EC
:104ED0003B449D4238BF1D461CF4806F30D02946AC
:104EE00000F024FB064650B90C23CAF80030A38911
:104EF00043F04003A3814FF0FF30BDE8F0873A460E
:104F00002169FFF797FFA38923F4906343F080039F
:104F1000A381266165613E44ED1B2660A56046467F
:104F2000464500D9464632464946206800F096FA82
:104F3000A3689B1BA36023681E4426600020DCE757
:104F40002A4600F04DFB06460028E2D12169504672
:104F500000F09EFAC8E700002DE9F04F1E468B894D
:104F60001B069DB007460D4614460ED50B6963B966
:104F7000402100F0DBFA2860286120B90C233B6057
:104F80004FF0FF30C9E040236B61002309932023D9
:104F90008DF82930DFF89C91039630238DF82A3064
:104FA0004FF0010A23461E4613F8012B0AB1252AA9
:104FB000F9D1B6EB040B0BD05B46224629463846A6
:104FC000FFF76EFF013000F0A380099B5B4409935B
:104FD0003378002B00F09C8000234FF0FF32CDE9A6
:104FE00005230136049307938DF853301A93344602
:104FF000052214F8011B4F48FBF7EAF8049BC0B9DF
:10500000D90644BF20228DF853201A0744BF2B2213
:105010008DF8532032782A2A13D0079A344600207C
:105020000A26214611F8013B303B092B4BD970B9B8
:1050300014E0A0EB09000AFA00F018430490264699
:10504000D5E7039A111D12680391002A01DB07922C
:1050500004E0524243F002030792049323782E2B7C
:105060000CD163782A2B33D1039B1A1D1B68039242
:10507000002BB8BF4FF0FF33023405932E4E21783A
:1050800003223046FBF7A4F838B14023801B03FA13
:1050900000F0049B03430134049314F8011B2748D8
:1050A0008DF828100622FBF793F8002838D0244BFF
:1050B00013BB039B073323F0070308330393099BB8
:1050C000434409936EE706FB023201200C46A8E731
:1050D00000230134059319460A26204610F8012BB7
:1050E000303A092A03D9002BC8D00591C6E706FB40
:1050F000012101230446F0E703AB00932A46114B3C
:1051000004A93846AFF30080B0F1FF3F8046D6D106
:10511000AB895B063FF534AF09981DB0BDE8F08F51
:1051200003AB00932A46074B04A9384600F082F8E7
:10513000EAE700BF245E00082A5E00082E5E000831
:1051400000000000A14E00082DE9F04791461F46DF
:105150008A680B69DDF820809342B8BF1346C9F80E
:10516000003091F8432006460C4612B10133C9F8CD
:1051700000302368990642BFD9F800300233C9F8DD
:105180000030256815F0060507D104F1190AE36817
:10519000D9F800209B1AAB4228DC94F843302268EF
:1051A000003318BF012392062DD404F1430239467F
:1051B0003046C047013020D02368E568D9F8002088
:1051C00003F00603042B08BFAD1AA36822690CBFC5
:1051D00025EAE57500259342C4BF9B1AED184FF0F0
:1051E00000091A344D451AD1002008E00123524627
:1051F00039463046C047013003D14FF0FF30BDE89B
:10520000F0870135C3E7E1185A1C302081F84300CC
:10521000224494F8451082F843100233C5E7012375
:10522000224639463046C0470130E6D009F101092F
:10523000D8E700002DE9F04306460C4601F1430093
:10524000097E85B06E29984617460C9B00F0BA80FF
:1052500024D8632939D00AD8002900F0C3805829FE
:1052600000F0918004F1420584F8421035E0642991
:1052700001D06929F6D125681A6815F0800F02F16E
:1052800004012CD012681960002A03DA2D2352423F
:1052900084F84330DFF8BCC10A233FE0732900F0F3
:1052A000A58008D86F2921D07029DBD1226842F06F
:1052B0002002226003E0752918D07829D2D1782203
:1052C00084F84520DFF890C161E01A68111D19606B
:1052D000136884F8423004F14205012393E0126818
:1052E000196015F0400F18BF12B2CDE7D4F800C016
:1052F0001A681CF0800F02F104051D6001D01268CD
:1053000003E01CF0400FFAD01288DFF848C16F2983
:105310000CBF08230A23002184F843106568A560A8
:10532000002DA2BF216821F0040121600AB9002DDF
:1053300046D00546B2FBF3F103FB112E93421CF855
:105340000EE005F801ED39D9082B0BD12368DA07F7
:1053500008D5236962689A42DEBF302305F8013C14
:1053600005F1FF35401B2061CDF800803B4603AAC4
:1053700021463046FFF7E8FE013049D14FF0FF30BB
:1053800005B0BDE8F083DFF8CCC084F845101D6897
:10539000216855F8042B1D600D060BD5CD0744BFC1
:1053A00041F0200121601AB9236823F02003236013
:1053B0001023B0E74B0648BF92B2EFE70A46B9E7C1
:1053C0000546C1E71A68D4F800C06169151D1D6063
:1053D0001CF0800F136801D0196003E01CF0400F2F
:1053E000FAD01980002323610546BDE71A68111D14
:1053F00019601568626800212846FAF7E9FE08B1CD
:10540000401B606063682361002384F84330ABE78E
:1054100023692A4639463046C0470130AED023685A
:105420009B0713D4E068039B9842B8BF1846A7E7D0
:1054300001234A4639463046C04701309ED00135E7
:10544000E368039A9B1AAB42F2DCEBE7002504F118
:105450001909F5E7355E0008465E0008884210B578
:1054600001EB020302D983421C4607D8421E99422F
:1054700008D011F8014B02F8014FF8E783189A1A87
:105480009A4200D110BD14F8011D03F8011DF7E781
:1054900038B50546002945D051F8043C0C1F002BB7
:1054A000B8BFE41800F0D2F81F4A1368104633B9A9
:1054B000636014602846BDE8384000F0CDB8A342D0
:1054C0000CD921686218934204BF1A685B68636054
:1054D00004BF521822600460ECE713465A680AB110
:1054E000A242FAD919685818A0420BD12068014489
:1054F000581882421960DDD1106852685A60014420
:105500001960D7E702D90C232B60D3E72068211854
:105510008A4204BF11685268626004BF09182160A2
:105520005C60C7E738BD00BF00590020F8B5CD1C4E
:1055300025F0030508350C2D38BF0C25002D064637
:1055400001DBA94203D90C2333600020F8BD00F031
:105550007DF821490A6814469CB9204F3B6823B95D
:105560002146304600F062F838602946304600F0A7
:105570005DF8431C23D10C233360304600F06CF8F7
:10558000E3E723685B1B17D40B2B03D923601C4470
:10559000256004E06368A2420CBF0B605360304694
:1055A00000F05AF804F10B00231D20F00700C21A86
:1055B000CCD01B1AA350C9E722466468CCE7C41CB0
:1055C00024F00304A042E3D0211A304600F02EF864
:1055D0000130DDD1CFE700BF005900200459002081
:1055E000F8B5074614460E4621B91146BDE8F84005
:1055F000FFF79CBF22B9FFF74BFF25462846F8BDB1
:1056000000F030F8A0420FD221463846FFF78EFF57
:1056100005460028F2D031462246FFF70BFC314602
:105620003846FFF735FFE9E73546E7E738B5064C7A
:10563000002305460846236000F01EF8431C02D1F3
:10564000236803B12B6038BDE45C0020014800F002
:1056500011B800BFEC5C0020014800F00CB800BF9E
:10566000EC5C002051F8043C181F002BBCBF0B5809
:10567000C018704770477047044A05491368002BEB
:1056800008BF0B46184410601846704708590020A0
:10569000F85C0020F8B500BFF8BC08BC9E46704717
:0C56A000F8B500BFF8BC08BC9E4670477F
:1056AC00F85D0008891D00080000000000000000E3
:1056BC0080000000000000000000000041646469EC
:1056CC006E6720436F6E7461637420696E2045456C
:1056DC0050524F4D0D0A0000636F6E74616374205D
:1056EC00776974682074686973206E756D62657271
:1056FC00206578697374732C20697473206E616DE6
:10570C00652069733A20257300000000636F6E7486
:10571C0061637420776974682074686973206E61A2
:10572C006D65206578697374732C20697473206EB1
:10573C00756D6265722069733A2025730000000054
:10574C00436865636B696E6720666F72204E756D7A
:10575C0062657220696E20454550524F4D0D0A000E
:10576C00466F756E6420436F6E7461637420776945
:10577C0074682074686973204E756D6265722C2094
:10578C004E616D652069733A2025730D0A00000087
:10579C00436F6E74616374204E756D626572206424
:1057AC006F65736E742065786973740D0A00000060
:1057BC00436865636B696E6720666F72204E616D1E
:1057CC006520696E20454550524F4D0D0A00000072
:1057DC00466F756E6420436F6E74616374207769D5
:1057EC0074682074686973204E616D652C204E7549
:1057FC006D6265722069733A2025730D0A000000F2
:10580C00436F6E74616374204E616D6520646F65C7
:10581C00736E742065786973740D0A0046756C6C30
:10582C0020657261736520646574656374656421B9
:10583C000D0A00004E6F20436F6E746163740D0A85
:10584C0000000000436F6E74616374204C697374C4
:10585C0020282564293A0D0A0000000025642D201B
:10586C0025732C202573000048616E646C65204301
:10587C00616C6C20526571202E2E2E2E0D0A0000AC
:10588C004D616B696E672043616C6C0D0A00000002
:10589C0048616E646C6520436F6E74616374205252
:1058AC006571202E2E2E2E0D0A00000048616E64AC
:1058BC006C652048616E6720757020526571202ED2
:1058CC002E2E2E0D0A000000456E64696E67204373
:1058DC00616C6C202E2E2E2E0D0A000048616E6419
:1058EC006C6520457261736520526571202E2E2ED9
:1058FC002E0D0A003D3D3D3D3D3D52656D6F766977
:10590C006E673D3D3D3D3D3D0D0A00003D3D3D3D3D
:10591C003D3D3D3D446F6E653D3D3D3D3D3D3D3D19
:10592C000D0A00004E616D65496E6465783D202559
:10593C00642C204E616D65456E64496E6465783DDE
:10594C002025640D0A00000077726F6E67206E616F
:10595C006D652C206174206C656173742074797092
:10596C006520312063686172616374657221000087
:10597C0077726F6E67204E616D650D0A0000000036
:10598C0077726F6E67206E616D652C20412D5A2CDD
:10599C0020612D7A2061726520616C6C6F77656473
:1059AC00000000004E616D653A2025730D0A000061
:1059BC004E616D654C656E6774683A2025640D0AFE
:1059CC00000000004E756D626572496E6465783D2D
:1059DC002025642C204E756D626572456E64496E8F
:1059EC006465783D2025640D0A00000077726F6EA7
:1059FC0067206E756D6265722C206974206D7573ED
:105A0C0074206265203130206E756D6265722100E4
:105A1C0077726F6E67204E756D6265720D0A0000AD
:105A2C0077726F6E67206E756D6265722C206E7565
:105A3C006D6265727320617265206A757374206E75
:105A4C00756D6265722100004E756D6265723A204B
:105A5C0025730D0A0000000054657874496E646566
:105A6C00783D2025642C2054657874456E64496E0D
:105A7C006465783D2025640D0A00000077726F6E16
:105A8C006720746578742C206174206C6561737464
:105A9C00207479706520312063686172616374656C
:105AAC00722100004E6F20496E7075742054657819
:105ABC00740D0A00546578743A2025730D0A0000A1
:105ACC00546578744C656E6774683A2025640D0AC9
